:100000000C9474000C949C000C949C000C949C0028
:100010000C949C000C949C000C949C000C949C00F0
:100020000C949C000C949C000C949C000C94310D3E
:100030000C949C000C949C000C949C000C949C00D0
:100040000C94700B0C949C000C94E00B0C94BA0B69
:100050000C949C000C949C000C949C000C949C00B0
:100060000C94120C0C949C00084AD73B3BCE016EBA
:1000700084BCBFFDC12F3D6C74319ABD56833DDAFF
:100080003D00C77F11BED9E4BB4C3E916BAAAABE0E
:10009000000000803F0000000000240027002A002C
:1000A00000000000250028002B00040404040404C0
:1000B0000404020202020202030303030303010217
:1000C00004081020408001020408102001020408E6
:1000D00010200000000800020100000304070000D7
:1000E000000000000000080E11241FBECFEFD8E072
:1000F000DEBFCDBF11E0A0E0B1E0E2E9F3E302C072
:1001000005900D92A03CB107D9F724E0A0ECB1E036
:1001100001C01D92AC34B207E1F710E0C4E7D0E0B3
:1001200004C02197FE010E940B14C337D107C9F701
:100130000E94550F0C94C7190C9400004F925F92C7
:100140006F927F928F929F92AF92BF92CF92DF92E7
:10015000EF92FF920F931F93CF93DF93CDB7DEB74C
:100160006A970FB6F894DEBF0FBECDBF9A8F898F06
:100170004D875E876F87788BC901B801A98DBA8DCD
:1001800050962D913D914D915C915397298B3A8BCF
:100190004B8B5C8B0E941114E98DFA8D648B758BEF
:1001A000868B978B2FE632E143E85AE30E945A167A
:1001B000A98DBA8D1C962D913D914D915C911F9703
:1001C0000E94121469877A878B879C87A98DBA8DC4
:1001D00094962D913D914D915C91979729833A8307
:1001E0004B835C832FE632E143E85AE369817A81ED
:1001F0008B819C810E945A164B015C01E98DFA8D1E
:10020000448C558C668C778C20A131A142A153A1DE
:100210002D833E834F835887A30192010E941114BE
:100220002D813E814F8158850E941114E98DFA8DF0
:1002300020813181428153810E9412142FE632E1E4
:1002400043E85AE30E945A16A98DBA8D58962D910B
:100250003D914D915C915B970E9412146B017C0162
:10026000A5019401C301B2010E9411142B013C01AC
:10027000A50194016D817E818F8198850E94111462
:100280006D837E838F8398872FE632E143E85AE3BC
:10029000E98DFA8D64817581868197810E945A1655
:1002A00029813A814B815C810E9412146D8B7E8B77
:1002B0008F8B988FA98DBA8D18962D913D914D9168
:1002C0005C911B97C701B6010E9412144B015C019F
:1002D000AC019B01C701B6010E94F01469837A83C7
:1002E0008B839C83A50194016D817E818F8198858C
:1002F0000E94F0144B015C0129853A854B855C8591
:100300006D857E858F8598890E9411146D877E8703
:100310008F87988B9B01AC0169817A818B819C814D
:100320000E945A1629853A854B855C850E941214D5
:1003300069877A878B879C87E98DFA8D64877587B3
:10034000868797872D853E854F855889C501B401DD
:100350000E945A1629893A894B895C890E94121495
:10036000A98DBA8D50966D937D938D939C935397E1
:1003700029813A814B815C81C701B6010E945A16DE
:100380009B01AC01C701B6010E941114E98DFA8DE1
:10039000608F718F828F938F29813A814B815C812D
:1003A000C301B2010E945A169B01AC01C301B20104
:1003B0000E941114A98DBA8D5C966D937D938D93D7
:1003C0009C935F97A5019401C701B6010E945A163C
:1003D0009B01AC016D817E818F8198850E941114F3
:1003E000E98DFA8D60A371A382A393A3A501940163
:1003F000C301B2010E945A169B01AC016D897E892E
:100400008F89988D0E941114A98DBA8D94966D9341
:100410007D938D939C93979769857A858B859C8531
:100420006A960FB6F894DEBF0FBECDBFDF91CF91B5
:100430001F910F91FF90EF90DF90CF90BF90AF9002
:100440009F908F907F906F905F904F90089590E075
:10045000FC01EE52FF4F2491FC01E254FF4F349116
:10046000FC01E655FF4FE491EE23C9F0222339F059
:10047000233001F1A8F4213019F1223029F1F0E004
:10048000EE0FFF1FE056FF4FA591B4918FB7F89480
:10049000EC91611126C030953E233C938FBF0895A7
:1004A0002730A9F02830C9F0243049F78091800026
:1004B0008F7D03C0809180008F7780938000DFCF95
:1004C00084B58F7784BDDBCF84B58F7DFBCF8091E2
:1004D000B0008F778093B000D2CF8091B0008F7D35
:1004E000F9CF3E2BDACF3FB7F89480912F0290914D
:1004F0003002A0913102B091320226B5A89B05C00E
:100500002F3F19F00196A11DB11D3FBFBA2FA92F92
:10051000982F8827BC01CD01620F711D811D911D8F
:1005200042E0660F771F881F991F4A95D1F70895FB
:100530008F929F92AF92BF92CF92DF92EF92FF92F3
:100540006B017C010E9473024B015C01C114D10458
:10055000E104F104B9F00E947302681979098A096B
:100560009B09683E73408105910580F321E0C21A22
:10057000D108E108F10888EE880E83E0981EA11CDE
:10058000B11CE4CFFF90EF90DF90CF90BF90AF9081
:100590009F908F90089508950895AF92BF92CF9243
:1005A000DF92EF92FF920F931F93CF93DF936C0133
:1005B0007B018B01040F151FEB015E01AE18BF0814
:1005C000C017D10759F06991D601ED91FC910190C6
:1005D000F081E02DC6010995892B79F7C501DF91DE
:1005E000CF911F910F91FF90EF90DF90CF90BF9030
:1005F000AF900895FC01538D448D252F30E0842F5A
:1006000090E0821B930B541710F0CF96089501973A
:100610000895FC01918D828D981761F0A28DAE0F27
:10062000BF2FB11D5D968C91928D9F5F9F73928FAE
:1006300090E008958FEF9FEF0895FC01918D828DDA
:10064000981731F0828DE80FF11D858D90E00895A7
:100650008FEF9FEF0895FC01918D228D892F90E0FF
:10066000805C9F4F821B91098F739927089589EAB7
:1006700092E00E942B0321E0892B09F420E0822FD5
:10068000089580E090E0892B29F00E9437038111C2
:100690000C9400000895FC01A48DA80FB92FB11D82
:1006A000A35ABF4F2C91848D90E001968F739927A8
:1006B000848FA689B7892C93A089B1898C91837086
:1006C00080648C93938D848D981306C00288F3897F
:1006D000E02D80818F7D80830895EF92FF920F93AC
:1006E0001F93CF93DF93EC0181E0888F9B8D8C8DDE
:1006F00098131AC0E889F989808185FF15C09FB7D2
:10070000F894EE89FF896083E889F9898081837094
:10071000806480839FBF81E090E0DF91CF911F9143
:100720000F91FF90EF900895F62E0B8D10E00F5F64
:100730001F4F0F731127E02E8C8D8E110CC00FB63A
:1007400007FCFACFE889F989808185FFF5CFCE01D2
:100750000E944B03F1CFEB8DEC0FFD2FF11DE35AFF
:10076000FF4FF0829FB7F8940B8FEA89FB89808155
:100770008062CFCFCF93DF93EC01888D8823B9F0CF
:10078000AA89BB89E889F9898C9185FD03C080819C
:1007900086FD0DC00FB607FCF7CF8C9185FFF2CF19
:1007A000808185FFEDCFCE010E944B03E9CFDF9121
:1007B000CF91089520910702260F3327331F21324E
:1007C0003105ECF42091A302FC0190E080E024309C
:1007D00069F082E00895A09107022191AC0149518E
:1007E0005E4FA40FB52FB11D2C930196861798F379
:1007F00080910702680F6093070280E0089581E00E
:1008000008951092A30281E08093820210927D02EB
:1008100061E082E10E94270261E083E10E942702F9
:10082000E9EBF0E080818E7F808380818D7F808303
:1008300088E48093B80085E48093BC000895CF934A
:10084000DF9391E09093E6018823B9F0C091B8005E
:10085000D091BA008091BC008A7B8093BC0060E09C
:1008600082E10E94270260E083E10E9427020E9449
:100870000104D093BA00C093B800DF91CF910895DE
:10088000CF92DF92EF92FF920F931F93CF93DF935C
:10089000D82FC62F613208F098C00E9473026B01F6
:1008A0007C018091A30281116BC081E08093A3023F
:1008B000809382029FEF90938102109280029C0F9E
:1008C00090937F0280937E0280917E02DD0FD82B71
:1008D000D0937E0280917D02813009F078C0109221
:1008E0007D020E9473026B017C0180917E028093E5
:1008F000BB008091A5029091A602A091A702B091A1
:10090000A802892B8A2B8B2BA1F00E9473020091E5
:10091000A5021091A6022091A7023091A8026C199D
:100920007D098E099F09061717072807390708F45C
:1009300048C08091BC0083FDD8CF85EC8093BC007B
:100940000E9473026B017C018091A302813009F443
:1009500040C0809180028C1710F4C0918002EDE5B8
:10096000F2E0A3E8B2E080E08C1355C08C2FDF9159
:10097000CF911F910F91FF90EF90DF90CF9008954E
:100980008091A5029091A602A091A702B091A80221
:10099000892B8A2B8B2B09F484CF0E947302009140
:1009A000A5021091A6022091A7023091A8026C190D
:1009B0007D098E099F09061717072807390708F0D0
:1009C00070CF8091A4020E941F04C0E0CFCF85EEBB
:1009D000B5CF8091A5029091A602A091A702B091F7
:1009E000A802892B8A2B8B2B09F4AECF0E947302AD
:1009F0000091A5021091A6022091A7023091A802B1
:100A00006C197D098E099F090617170728073907F2
:100A100008F09ACFD6CF91919D938F5FA5CF8F92FB
:100A20009F92AF92BF92CF92DF92EF92FF920F937D
:100A30001F93CF93DF93D0915C02D13208F0D7C0DF
:100A4000182FC0915B020E9473026B017C018091A0
:100A5000A30281116BC082E08093A30210938202F3
:100A60008FEF8093810210928002D0937F02ABE3DC
:100A7000B2E0EDE5F2E080E0D81391C010927E0282
:100A800080917E02CC0FC82BC0937E0280917D02A4
:100A9000813009F088C010927D020E9473026B01C0
:100AA0007C0180917E028093BB008091A502909191
:100AB000A602A091A702B091A802892B8A2B8B2BAA
:100AC000A1F00E9473020091A5021091A60220914C
:100AD000A7023091A8026C197D098E099F0906179B
:100AE00017072807390708F442C08091BC0083FD2E
:100AF000D8CF85EC8093BC000E9473026B017C010F
:100B00008091A302823009F450C0809181028F3F0E
:100B100009F46FC080918102803209F46CC0809129
:100B20008102803309F469C084E026C08091A50267
:100B30009091A602A091A702B091A802892B8A2BBE
:100B40008B2B09F484CF0E9473028090A5029090B1
:100B5000A602A090A702B090A8026C197D098E0988
:100B60009F0986169706A806B90608F070CF8091EF
:100B7000A4020E941F0485E010923A0210925C02C7
:100B800010923902DF91CF911F910F91FF90EF905A
:100B9000DF90CF90BF90AF909F908F9008959D91E0
:100BA00091938F5F69CF85EEA5CF8091A50290913B
:100BB000A602A091A702B091A802892B8A2B8B2BA9
:100BC00009F49ECF0E9473020091A5021091A60223
:100BD0002091A7023091A8026C197D098E099F0906
:100BE000061717072807390708F08ACFC0CF81E01A
:100BF000C3CF80E0C1CF82E0BFCF83E0BDCF1F93E2
:100C0000CF93DF93162FC2E5D3E0A881B98191E09D
:100C10009093390298E690935B0210923A021092F8
:100C20005C02ED91FC9111970190F081E02D682F0D
:100C3000CD01099588819981DC01ED91FC910190AC
:100C4000F081E02D612F099581E0DF91CF911F9117
:100C50000C940F050895E091380280913702E8174F
:100C600030F4F0E0ED57FD4F808190E008958FEF74
:100C70009FEF089590913802809137022FEF3FEF58
:100C8000981748F4E92FF0E0ED57FD4F208130E050
:100C90009F5F90933802C901089580913702909127
:100CA0003802891B990B0895CF92DF92EF92FF9241
:100CB0000F931F93CF93DF937C01CB018A01209187
:100CC0003902222389F0EB016B01C40ED51ECC152D
:100CD000DD0569F06991D701ED91FC910190F081FA
:100CE000E02DC7010995F3CF642F0E94DA03C801F4
:100CF000DF91CF911F910F91FF90EF90DF90CF90F8
:100D00000895CF93DF931F92CDB7DEB7698320910B
:100D100039022223F9F020915C02203258F021E0C0
:100D200030E0FC013383228390E080E00F90DF917C
:100D3000CF91089580913A02E82FF0E0E55CFD4FF5
:100D4000998190838F5F80933A0280935C0281E067
:100D500090E0ECCF61E0CE0101960E94DA03F7CF7C
:100D600090E080E00895CF92DF92EF92FF92CF93D0
:100D7000DF93EC01603282E07807CCF5653B7105CA
:100D800014F064EB70E0898128E830E0281B310919
:100D900087FD3395220F331F220F331F6901330F55
:100DA000EE08FF088A8128E532E0281B310987FD1B
:100DB0003395220F331F220F331F032E000C440BD9
:100DC000550B2C193D094E095F09DB0177FF02C065
:100DD000B0E0A0E00E94C61324EB30E040E050E019
:100DE0000E949C13C20ED31EE41EF51EB601E881BC
:100DF000EC3070F5298188E890E0821B910927FD8D
:100E00009395880F991F880F991F681779077CF0B1
:100E10002A8188E592E0821B910927FD9395880F2E
:100E2000991F880F991F681779070CF4CB01029757
:100E3000880F991F4FB7F8942E2F30E0F901EE0F6D
:100E4000FF1FE20FF31FEE53FE4F928381834FBFCC
:100E5000DF91CF91FF90EF90DF90CF900895CF93E7
:100E6000DF93DC018C918C3008F06DC0CB01FB016D
:100E7000E254FF4F249186559F4FFC0184918823B3
:100E800099F090E0880F991FFC01EA56FF4FC59139
:100E9000D491FC01E056FF4F859194918FB7F8945F
:100EA000E881E22BE8838FBF8C91282F30E0F90195
:100EB000EE0FFF1FE20FF31FEE53FE4F962F9F73AF
:100EC0006081607C692B608311961C921197129649
:100ED0001C9212972CE0622F0E94FF13829FB00198
:100EE000112430E020E0AB01420F531FFA01EE0F56
:100EF000FF1FE40FF51FEE53FE4F908196FD16C0C5
:100F00002F5F3F4F2C30310571F781110FC01092C8
:100F1000800082E08093810010928500109284000E
:100F2000B19A80916F00826080936F00EC918E2F58
:100F300090E0FC01EE0FFF1FE80FF91FEE53FE4F8C
:100F40008081806480838C91DF91CF910895CF93CD
:100F5000DF93FC0101900020E9F73197AF01481BB6
:100F6000590BBC0189EA92E00E94CD02EC0142E0FB
:100F700050E064E271E089EA92E00E94CD028C0FB9
:100F80009D1FDF91CF9108952F923F924F925F92D4
:100F90006F927F928F929F92AF92BF92CF92DF9289
:100FA000EF92FF92CF93DF93CDB7DEB728970FB6BE
:100FB000F894DEBF0FBECDBF8091520390915303D2
:100FC00021E02093390228E620935B0210923A0236
:100FD00010925C02DC01ED91FC910190F081E02D1A
:100FE0006BE3099580E00E940F056EE088E60E94A1
:100FF00040041092380280933702809152039091FE
:101000005303DC01ED91FC910284F385E02D0995F9
:10101000F82E8091520390915303DC01ED91FC91E5
:101020000284F385E02D099520E0822B9F2990937F
:101030005503809354038091520390915303DC0134
:10104000ED91FC910284F385E02D0995F82E8091B5
:10105000520390915303DC01ED91FC910284F385DE
:10106000E02D099520E0822B9F29909357038093D0
:1010700056038091520390915303DC01ED91FC9152
:101080000284F385E02D0995F82E8091520390910A
:101090005303DC01ED91FC910284F385E02D099569
:1010A00020E0822B9F2990935903809358038091CD
:1010B000520390915303DC01ED91FC910284F3857E
:1010C000E02D0995F82E8091520390915303DC0195
:1010D000ED91FC910284F385E02D099520E0822BAF
:1010E0009F2990935B0380935A03809152039091C0
:1010F0005303DC01ED91FC910284F385E02D099509
:10110000F82E8091520390915303DC01ED91FC91F4
:101110000284F385E02D099520E0822B9F2990938E
:101120005D0380935C038091520390915303DC0133
:10113000ED91FC910284F385E02D0995F82E8091C4
:10114000520390915303DC01ED91FC910284F385ED
:10115000E02D099520E0822B9F2990935F038093D7
:101160005E038091520390915303DC01ED91FC9159
:101170000284F385E02D0995F82E80915203909119
:101180005303DC01ED91FC910284F385E02D099578
:10119000612C7F2C682A792A709261036092600327
:1011A00060915A0370915B03072E000C880B990B1A
:1011B0000E949A1520E030EF41E456E40E94121498
:1011C00020E030E04AEA53E40E94F01460936E039A
:1011D00070936F0380937003909371036091540335
:1011E00070915503072E000C880B990B0E949A15DD
:1011F00020E030E040E858E30E945A164B015C01C1
:101200008092720390927303A0927403B09275035C
:101210006091560370915703072E000C880B990BB1
:101220000E949A1520E030E040E858E30E945A16E8
:101230006B017C01C0927603D0927703E092780331
:10124000F09279036091580370915903072E000CB6
:10125000880B990B0E949A1520E030E040E858E393
:101260000E945A161B012C0120927A0330927B03B4
:1012700040927C0350927D0320E030E0A901C5013B
:10128000B4010E944D16A501940118160CF0505897
:10129000C201B1010E9412149B01AC01C701B60149
:1012A0000E94911420E030E044EB53E40E945A166F
:1012B00020E030E040E05FE30E945A162BED3FE073
:1012C00049E450E40E94F0146093960370939703EE
:1012D000809398039093990320E030E0A901C7011F
:1012E000B6010E944D16181624F0F7FAF094F7F89C
:1012F000F094A7019601C201B1010E9412149B0152
:10130000AC01C501B4010E94911420E030E044EB2F
:1013100053E40E945A1620E030E040E05FEB0E9468
:101320005A162BED3FE049E450E40E94F01460931C
:101330009A0370939B0380939C0390939D03609109
:101340005E0370915F03072E000C880B990B0E94BF
:101350009A1520E030E043E852E40E94F0146B015B
:101360007C0160915C0370915D03072E000C880B7B
:10137000990B0E949A1520E030E043E852E40E9465
:10138000F014209162033091630340916403509103
:1013900065030E94111460937E0370937F03809312
:1013A00080039093810320916603309167034091FD
:1013B000680350916903C701B6010E94111460933C
:1013C0008203709383038093840390938503B30116
:1013D000770C880B990B0E949A1520E030E043E8C7
:1013E00052E40E94F01420916A0330916B03409103
:1013F0006C0350916D030E941114609386037093E7
:10140000870380938803909389032FB7F8946091A2
:1014100033027091340280913502909136022FBFD1
:10142000C090B203D090B303E090B403F090B50342
:101430006C197D098E099F090E9498152FE632E1EB
:1014400043E85AE30E945A166B017C01C092AE0336
:10145000D092AF03E092B003F092B10320917E03EB
:1014600030917F0340918003509181030E945A166E
:101470002B013C01AC019B0160918A0370918B03AD
:1014800080918C0390918D030E94121460938A03C3
:1014900070938B0380938C0390938D032091820330
:1014A000309183034091840350918503C701B601B5
:1014B0000E945A164B015C01AC019B0160918E03A6
:1014C00070918F0380919003909191030E94121468
:1014D00060938E0370938F03809390039093910396
:1014E00020918603309187034091880350918903AE
:1014F000C701B6010E945A162091920330919303BE
:1015000040919403509195030E9412146D837E8341
:101510008F839887609392037093930380939403CF
:1015200090939503C090BA03D090BB03E090BC03A6
:10153000F090BD038091B6039091B703A091B803DA
:10154000B091B90389839A83AB83BC832091A203B2
:101550003091A3034091A4035091A503C301B201AC
:101560000E941214A70196010E945A162B013C01F9
:1015700020919603309197034091980350919903DD
:1015800069817A818B819C810E945A169B01AC01F2
:10159000C301B2010E9412146093A2037093A303CB
:1015A0008093A4039093A5032091A6033091A703F1
:1015B0004091A8035091A903C501B4010E941214DF
:1015C000A70196010E945A166B017C0120919A0393
:1015D00030919B0340919C0350919D0369817A81D6
:1015E0008B819C810E945A169B01AC01C701B601F8
:1015F0000E9412146093A6037093A7038093A8031C
:101600009093A9038D819E81AF81B8858093AA03B1
:101610009093AB03A093AC03B093AD032FB7F894B2
:101620008091330290913402A0913502B09136023C
:101630002FBF8093B2039093B303A093B403B093EE
:10164000B50328960FB6F894DEBF0FBECDBFDF916D
:10165000CF91FF90EF90DF90CF90BF90AF909F9091
:101660008F907F906F905F904F903F902F90089554
:1016700085ED8093BC008091A5029091A602A09177
:10168000A702B091A8020796A11DB11D23E0B6954F
:10169000A795979587952A95D1F72091BC0024FDB1
:1016A00003C01092A30208954091A5025091A60292
:1016B0006091A7027091A802452B462B472B69F336
:1016C0000097A105B10541F02AE22A95F1F700C083
:1016D0000197A109B109E1CF8091A4020C941F04E4
:1016E0001F920F920FB60F9211242F933F938F9357
:1016F0009F93AF93BF938091330290913402A09156
:101700003502B091360230912E0223E0230F2D379F
:1017100058F50196A11DB11D20932E02809333022E
:1017200090933402A0933502B093360280912F0239
:1017300090913002A0913102B09132020196A11D28
:10174000B11D80932F0290933002A0933102B09389
:101750003202BF91AF919F918F913F912F910F9046
:101760000FBE0F901F90189526E8230F0296A11D1B
:10177000B11DD2CF1F920F920FB60F9211242F934B
:101780003F934F935F936F937F938F939F93AF9309
:10179000BF93EF93FF9389EA92E00E944B03FF917E
:1017A000EF91BF91AF919F918F917F916F915F91D9
:1017B0004F913F912F910F900FBE0F901F90189552
:1017C0001F920F920FB60F9211242F938F939F9316
:1017D000EF93FF93E091B902F091BA028081E0911A
:1017E000BF02F091C00282FD1BC090818091C202B5
:1017F0008F5F8F732091C302821741F0E091C20284
:10180000F0E0E755FD4F958F8093C202FF91EF9175
:101810009F918F912F910F900FBE0F901F90189551
:101820008081F4CF1F920F920FB60F9211242F9345
:101830003F934F935F936F937F938F939F93AF9358
:10184000BF93EF93FF938091B900887F803609F4AE
:101850004AC0F0F5883209F4A7C018F5803109F4C0
:101860009BC0B8F4882309F4F9C0883009F494C007
:10187000FF91EF91BF91AF919F918F917F916F9168
:101880005F914F913F912F910F900FBE0F901F903E
:101890001895883109F488C0803251F7809381020D
:1018A00014C0803409F49DC040F48033B9F3883308
:1018B000F9F68093810285ECB0C0803509F485C0CB
:1018C000883509F496C0883499F60E94380BD0CF39
:1018D000883909F48CC038F5883729F050F48836F7
:1018E00011F0803729F683E08093A3021092290239
:1018F00057C0883809F47BC0803919F0803809F066
:10190000B7CF80912902803208F071C0E09129029E
:1019100081E08E0F809329028091BB00F0E0E75FA9
:10192000FD4F80833DC0803B39F0E0F4803A09F4FC
:1019300079C0883A09F09CCF84E08093A30210928A
:10194000080210920702E0912C02F0912D020995F5
:101950008091070281110FC081E0809307021092ED
:10196000E70109C0803C09F4A6CF883C09F4A3CF65
:10197000883B09F07DCFE091080281E08E0F8093D3
:101980000802F0E0E951FE4F80818093BB00909106
:1019900008028091070229C080917E028093BB00DB
:1019A00085EC8093BC0064CF9091800280917F028F
:1019B000981758F5E091800281E08E0F80938002A5
:1019C000F0E0E35AFD4F8081E9CFE091800281E0B1
:1019D0008E0F809380028091BB00F0E0E35AFD4FB0
:1019E00080839091800280917F029817C8F285E8E9
:1019F000D8CFE091800281E08E0F809380028091A9
:101A0000BB00F0E0E35AFD4F808380918202811198
:101A10005CCF81E080937D0284EA8093BC001092C9
:101A2000A30226CF85EC8093BC001092A302809184
:101A30002902803230F4E0912902F0E0E75FFD4FA7
:101A400010826091290270E0E0912A02F0912B024D
:101A500089E092E00995109229020ACF1092810242
:101A600034CF1F920F920FB60F9211242F933F93F2
:101A70004F935F936F937F938F939F93AF93BF9396
:101A8000CF93DF93EF93FF938091C001C091C10189
:101A9000D0E087FF24C010928500109284008091CE
:101AA000C0018F5F8093C0018091C001082E000C9F
:101AB000990B8C179D0724F48091C0018C30C4F1E0
:101AC0008091840090918500049680349C4908F4AC
:101AD0007AC08091840090918500049676C08091B0
:101AE000C001082E000C990B8C179D07C4F6E091DD
:101AF000C0018E2FEE0F990BFC01EE0FFF1FE80FB8
:101B0000F91FEE53FE4F808186FFC9CFE091C001DF
:101B10008E2FEE0F990BFC01EE0FFF1FE80FF91F40
:101B2000EE53FE4F808160E08F730E942702B7CF93
:101B30002091840030918500E091C0018E2FEE0F3E
:101B4000990BFC01EE0FFF1FE80FF91FEE53FE4F3C
:101B500081819281820F931F9093890080938800E6
:101B6000E091C0018E2FEE0F990BFC01EE0FFF1FCD
:101B7000E80FF91FEE53FE4F808186FF11C0E09100
:101B8000C0018E2FEE0F990BFC01EE0FFF1FE80F27
:101B9000F91FEE53FE4F808161E08F730E94270290
:101BA000FF91EF91DF91CF91BF91AF919F918F9175
:101BB0007F916F915F914F913F912F910F900FBE49
:101BC0000F901F90189580E49CE990938900809372
:101BD00088008FEF8093C001E3CFFC019091C10199
:101BE0009C3098F481E0890F8093C1019083892F04
:101BF00090E0FC01EE0FFF1FE80FF91FEE53FE4FC0
:101C000088EB9BE09283818308958FEF8083089512
:101C10000F931F93E9EAF2E01382128288EE93E0B9
:101C2000A0E0B0E084839583A683B78324E031E00D
:101C30003183208325EC30E03587248724EC30E0A5
:101C40003787268720EC30E0318B208B21EC30E089
:101C5000338B228B22EC30E0358B248B26EC30E06A
:101C6000378B268B118E128E138E148EE6E4F3E0E2
:101C70001382128284839583A683B78386E191E0E1
:101C800091838083F0935303E09352038AE097EDAE
:101C9000A3EABCE38093B6039093B703A093B80381
:101CA000B093B90388E491EEAAE7BFE38093BA0347
:101CB0009093BB03A093BC03B093BD038EEB93E062
:101CC0000E94ED0D81EC93E00E94ED0D84EC93E019
:101CD0000E94ED0D87EC93E00E94ED0D0FE612E1FE
:101CE00023E83AE30093CA031093CB032093CC0379
:101CF0003093CD0346EA5BE964E47BE34093CE0393
:101D00005093CF036093D0037093D1038FE892EC8C
:101D1000A5EFBCE38093D2039093D303A093D403A5
:101D2000B093D5031092D6031092D7031092D80324
:101D30001092D9031092DA031092DB031092DC03A5
:101D40001092DD031092E2031092E3031092E40379
:101D50001092E5031092E6031092E7031092E80355
:101D60001092E9031092EA031092EB031092EC0335
:101D70001092ED031092EE031092EF031092F00315
:101D80001092F1030093F2031093F3032093F403F2
:101D90003093F5034093F6035093F7036093F803F1
:101DA0007093F9038093FA039093FB03A093FC03D1
:101DB000B093FD031092FE031092FF0310920004F3
:101DC0001092010410920204109203041092040471
:101DD0001092050410920A0410920B0410920C0445
:101DE00010920D0410920E0410920F041092100421
:101DF0001092110410921204109213041092140401
:101E000010921504109216041092170410921804E0
:101E10001092190400931A0410931B0420931C04BD
:101E200030931D0440931E0450931F0460932004BC
:101E3000709321048093220490932304A09324049C
:101E4000B0932504109226041092270410922804BF
:101E50001092290410922A0410922B0410922C0440
:101E600010922D0410923204109233041092340414
:101E700010923504109236041092370410923804F0
:101E80001092390410923A0410923B0410923C04D0
:101E900010923D0410923E0410923F0410924004B0
:101EA000109241041F910F910895CF93DF93CDB706
:101EB000DEB7CB55D1090FB6F894DEBF0FBECDBF4C
:101EC000789484B5826084BD84B5816084BD85B515
:101ED000826085BD85B5816085BD80916E00816021
:101EE00080936E00109281008091810082608093C7
:101EF00081008091810081608093810080918000C9
:101F00008160809380008091B10084608093B100F3
:101F10008091B00081608093B00080917A008460ED
:101F200080937A0080917A00826080937A00809119
:101F30007A00816080937A0080917A008068809333
:101F40007A001092C100E091B902F091BA0282E0E9
:101F50008083E091B502F091B6021082E091B70261
:101F6000F091B80280E180831092C102E091BD023D
:101F7000F091BE0286E08083E091BB02F091BC024A
:101F8000808180618083E091BB02F091BC028081FE
:101F900088608083E091BB02F091BC028081806800
:101FA0008083E091BB02F091BC0280818F7D8083B1
:101FB000109238021092370210923A0210925C028C
:101FC0000E9401048BEC92E090932D0280932C02EE
:101FD0008CEC92E090932B0280932A0260E089E1DE
:101FE0000E94FF0560E08AE10E94FF0568E08BE146
:101FF0000E94FF0560E08CE10E94FF0561E08BE636
:102000000E94FF050E94C40710928A0310928B035E
:1020100010928C0310928D0310928E0310928F03F6
:1020200010929003109291038091960390919703E0
:10203000A0919803B09199038093A2039093A30376
:10204000A093A403B093A50380919A0390919B035E
:10205000A0919C03B0919D038093A6039093A70346
:10206000A093A803B093A9032FB7F89480913302EB
:1020700090913402A0913502B09136022FBF809327
:10208000B2039093B303A093B403B093B50368EE87
:1020900073E080E090E00E94980208EB1BE0C12C06
:1020A000D12C760146015701260137018091520358
:1020B0009091530321E02093390238E630935B027C
:1020C00010923A0210925C02DC01ED91FC910190B9
:1020D000F081E02D63E4099580E00E940F0566E041
:1020E00088E60E9440041092380280933702809163
:1020F000520390915303DC01ED91FC910284F3852E
:10210000E02D0995382E8091520390915303DC0104
:10211000ED91FC910284F385E02D099563963FAE25
:10212000639762961FAE629763962EAD3FAD63973D
:10213000282B392B69963FAF2EAF699780915203B8
:1021400090915303DC01ED91FC910284F385E02D25
:102150000995382E8091520390915303DC01ED9143
:10216000FC910284F385E02D099565963FAE659755
:1021700064961FAE649765962EAD3FAD6597282B8C
:10218000392B6B963FAF2EAF6B9780915203909196
:102190005303DC01ED91FC910284F385E02D099558
:1021A0006C968FAF6C978091520390915303DC0132
:1021B000ED91FC910284F385E02D09951C0169964F
:1021C0002EAD3FAD6997B901330F880B990B0E9473
:1021D0009A1520E030E043E852E40E94F0149B019D
:1021E000AC01C301B2010E9412142B013C016B9699
:1021F000AEADBFAD6B97BD01BB0F880B990B0E94B5
:102200009A1520E030E043E852E40E94F0149B016C
:10221000AC01C501B4010E9412144B015C016C9623
:10222000BFAD6C976796BFAF679766961FAE669710
:1022300067966EAD7FAD679762297329072E000CF4
:10224000880B990B0E949A1520E030E043E852E495
:102250000E94F0149B01AC01C701B6010E94121448
:102260006B017C010150110909F020CF20E030E81A
:102270004BE355E4C301B2010E94F0146093620382
:1022800070936303809364039093650320E030E8C8
:102290004BE355E4C501B4010E94F014609366035A
:1022A00070936703809368039093690320E030E89C
:1022B0004BE355E4C701B6010E94F01460936A0332
:1022C00070936B0380936C0390936D0387E291E0AE
:1022D0000E94A70766E070E08EEB93E00E942F0754
:1022E00063E070E081EC93E00E942F076AE070E009
:1022F00084EC93E00E942F076BE070E087EC93E0A2
:102300000E942F0780E690E090934304809342045C
:1023100083E690E0909345048093440483E590E045
:10232000909347048093460486E590E09093490497
:102330008093480485E090E090934B0480934A0496
:1023400060E670E08EEB93E00E94B3066091440477
:102350007091450481EC93E00E94B30660914604BD
:102360007091470484EC93E00E94B30660914804A6
:102370007091490487EC93E00E94B3060E94C40761
:10238000C090AA03D090AB03E090AC03F090AD03F3
:1023900020E030E0A901C701B6010E944D1620E0FF
:1023A00030E040E05FE387FD57C1C701B6010E94FE
:1023B00012140E9462151B01C090A603D090A703BF
:1023C000E090A803F090A90320E030E0A901C70144
:1023D000B6010E944D1620E030E040E05FE387FD4B
:1023E00040C1C701B6010E9412140E9462157B0110
:1023F0008090A2039090A303A090A403B090A503A3
:1024000020E030E0A901C501B4010E944D1620E092
:1024100030E040E05FE387FD29C1C501B4010E94BF
:1024200012140E9462156B018090860390908703BE
:10243000A0908803B0908903B101032C000C880B95
:10244000990B0E949A15AB01BC01950184018AE1A8
:1024500094E00E949E008090820390908303A0905D
:102460008403B0908503B7010F2C000C880B990BE7
:102470000E949A15AB01BC019501840182EF93E0A3
:102480000E949E0080907E0390907F03A090800326
:10249000B0908103B6010D2C000C880B990B0E94A3
:1024A0009A15AB01BC01950184018AEC93E00E946E
:1024B0009E0060914A0470914B04072E000C880B1B
:1024C000990B0E949A154B015C01AC019B01609134
:1024D00086037091870380918803909189030E94FD
:1024E000F0142B013C0120E030E0A9010E944D16C0
:1024F00020E030E040E05FE387FDBDC0C301B201F2
:102500000E9412140E9462158B01A5019401609132
:1025100082037091830380918403909185030E94CC
:10252000F0142B013C0120E030E0A9010E944D167F
:1025300020E030E040E05FE387FDA2C0C301B201CC
:102540000E9412140E9462153B01A5019401609142
:102550007E0370917F0380918003909181030E949C
:10256000F0144B015C0120E030E0A9010E944D16FF
:1025700020E030E040E05FE387FD87C0C501B401A3
:102580000E9412140E9462157F936F93DF92CF9284
:102590007F926F92FF92EF921F930F933F922F9231
:1025A00027E331E03F932F93A1E0B0E0AC0FBD1FD4
:1025B000BF93AF930E94EF16CE0101960E94A7072A
:1025C0000FB6F894DEBF0FBECDBF0A3111050CF473
:1025D00061C087E891E00E94A70760914204709172
:1025E00043046C5E7F4F8EEB93E00E94B3066091D4
:1025F0004404709145046C5E7F4F81EC93E00E942F
:10260000B30660914604709147046C5E7F4F84EC82
:1026100093E00E94B30660914804709149046C5E97
:102620007F4F87EC93E00E94B30661E08DE00E944B
:10263000270264E170E080E090E00E94980280E070
:1026400090E0892B09F49ACE0E943703882309F47D
:1026500095CE0E94000092CEC701B6010E941114CF
:10266000A8CEC701B6010E941114BFCEC501B401A6
:102670000E941114D6CEC301B2010E94111442CFA0
:10268000C301B2010E9411145DCFC501B4010E94C3
:10269000111478CF073E3FEF13074CF583EA91E022
:1026A0000E94A7076091420470914304645171092C
:1026B0008EEB93E00E94B306609144047091450450
:1026C0006451710981EC93E00E94B3066091460465
:1026D000709147046451710984EC93E00E94B30641
:1026E0006091480470914904645171099ACF6091D6
:1026F000420470914304600F711F8EEB93E00E94BF
:10270000B3066091440470914504600F711F81EC21
:1027100093E00E94B3066091460470914704600FF5
:10272000711F84EC93E00E94B3066091480470919D
:102730004904600F711F75CF052E97FB1EF400949E
:102740000E94B31357FD07D00E94CE1307FC03D09D
:102750004EF40C94B31350954095309521953F4F0E
:102760004F4F5F4F089590958095709561957F4F7D
:102770008F4F9F4F08950E94F013A59F900DB49F17
:10278000900DA49F800D911D11240895B7FF0C9406
:10279000BB130E94BB13821B930B0895A1E21A2E58
:1027A000AA1BBB1BFD010DC0AA1FBB1FEE1FFF1FF5
:1027B000A217B307E407F50720F0A21BB30BE40B45
:1027C000F50B661F771F881F991F1A9469F760958C
:1027D0007095809590959B01AC01BD01CF01089546
:1027E000A29FB001B39FC001A39F700D811D112452
:1027F000911DB29F700D811D1124911D0895991B8B
:1028000079E004C0991F961708F0961B881F7A95E7
:10281000C9F780950895EE0FFF1F0590F491E02D04
:1028200009945058BB27AA270E9429140C94131608
:102830000E94051638F00E940C1620F039F49F3FD4
:1028400019F426F40C94DB150EF4E095E7FB0C94D8
:10285000D515E92F0E94241658F3BA17620773079B
:102860008407950720F079F4A6F50C9446160EF42B
:10287000E0950B2EBA2FA02D0B01B90190010C0190
:10288000CA01A0011124FF27591B99F0593F50F4A8
:10289000503E68F11A16F040A22F232F342F442700
:1028A000585FF3CF469537952795A795F0405395F8
:1028B000C9F77EF41F16BA0B620B730B840BBAF0C8
:1028C0009150A1F0FF0FBB1F661F771F881FC2F733
:1028D0000EC0BA0F621F731F841F48F48795779547
:1028E0006795B795F7959E3F08F0B0CF9395880F01
:1028F00008F09927EE0F9795879508950E94051681
:1029000060F080E891E009F49EEF0E940C1628F038
:1029100040E851E071F45EEF0CC00C94DB150C94B0
:102920004616E92FE0780E94241640F3092E052A66
:10293000B1F3261737074807590738F00E2E07F866
:10294000E02569F0E025E0640AC0EF6307F8009431
:1029500007FADB01B9019D01DC01CA01AD01EF936A
:102960000E9407150E9413160E94C1145F915523FF
:1029700039F02BED3FE049E450FD49EC0C94121482
:102980000895DF93DD27B92FBF7740E85FE3161680
:10299000170648075B0718F4D92F0E9452169F9319
:1029A0008F937F936F930E94C716E8E6F0E00E9432
:1029B000DE150E9413162F913F914F915F910E9457
:1029C0006D16DD2351F09058A2EA2AED3FE049EC64
:1029D0005FE3D0785D270E942914DF910C941316D1
:1029E0000E9404150C9413160E940C1658F00E94B5
:1029F000051640F029F45F3F29F00C94D5155111CC
:102A00000C9447160C94DB150E94241668F3992346
:102A1000B1F3552391F3951B550BBB27AA276217DA
:102A20007307840738F09F5F5F4F220F331F441FE7
:102A3000AA1FA9F335D00E2E3AF0E0E832D091501B
:102A40005040E695001CCAF72BD0FE2F29D0660F08
:102A5000771F881FBB1F261737074807AB07B0E84B
:102A600009F0BB0B802DBF01FF2793585F4F3AF051
:102A70009E3F510578F00C94D5150C9447165F3F96
:102A8000E4F3983ED4F3869577956795B795F795D7
:102A90009F5FC9F7880F911D9695879597F90895BF
:102AA000E1E0660F771F881FBB1F6217730784075B
:102AB000BA0720F0621B730B840BBA0BEE1F88F76A
:102AC000E09508950E9469156894B1110C94471619
:102AD00008950E942C1688F09F5798F0B92F9927D7
:102AE000B751B0F0E1F0660F771F881F991F1AF0F9
:102AF000BA95C9F714C0B13091F00E944616B1E002
:102B000008950C944616672F782F8827B85F39F000
:102B1000B93FCCF3869577956795B395D9F73EF491
:102B200090958095709561957F4F8F4F9F4F089539
:102B3000E89409C097FB3EF4909580957095619557
:102B40007F4F8F4F9F4F9923A9F0F92F96E9BB270D
:102B50009395F695879577956795B795F111F8CF89
:102B6000FAF4BB0F11F460FF1BC06F5F7F4F8F4FF4
:102B70009F4F16C0882311F096E911C0772321F0EA
:102B80009EE8872F762F05C0662371F096E8862F82
:102B900070E060E02AF09A95660F771F881FDAF7D9
:102BA000880F9695879597F9089597F99F6780E81C
:102BB00070E060E008959FEF80EC0895DF93CF937D
:102BC0001F930F93FF92EF92DF927B018C01689429
:102BD00006C0DA2EEF010E946D16FE01E894A59161
:102BE0002591359145915591A6F3EF010E94291445
:102BF000FE019701A801DA9469F7DF90EF90FF904A
:102C00000F911F91CF91DF91089500240A94161619
:102C1000170618060906089500240A9412161306CA
:102C2000140605060895092E0394000C11F4882358
:102C300052F0BB0F40F4BF2B11F460FF04C06F5F74
:102C40007F4F8F4F9F4F089557FD9058440F551F4A
:102C500059F05F3F71F04795880F97FB991F61F01E
:102C60009F3F79F087950895121613061406551F95
:102C7000F2CF4695F1DF08C0161617061806991F01
:102C8000F1CF86957105610508940895E894BB27F6
:102C900066277727CB0197F908950E94CB1608F491
:102CA0008FEF08959B01AC0160E070E080E89FE346
:102CB0000C94F0140E946D160C9413160E940516C5
:102CC00038F00E940C1620F0952311F00C94D515C5
:102CD0000C94DB1511240C9447160E94241670F3F3
:102CE000959FC1F3950F50E0551F629FF001729FB1
:102CF000BB27F00DB11D639FAA27F00DB11DAA1FC0
:102D0000649F6627B00DA11D661F829F2227B00D0C
:102D1000A11D621F739FB00DA11D621F839FA00D97
:102D2000611D221F749F3327A00D611D231F849FE7
:102D3000600D211D822F762F6A2F11249F5750403E
:102D40009AF0F1F088234AF0EE0FFF1FBB1F661FB9
:102D5000771F881F91505040A9F79E3F510580F082
:102D60000C94D5150C9447165F3FE4F3983ED4F3CA
:102D7000869577956795B795F795E7959F5FC1F726
:102D8000FE2B880F911D9695879597F908959B01C5
:102D9000AC010C945A16990F0008550FAA0BE0E8E5
:102DA000FEEF16161706E807F907C0F0121613060D
:102DB000E407F50798F0621B730B840B950B39F44D
:102DC0000A2661F0232B242B252B21F408950A26B3
:102DD00009F4A140A6958FEF811D811D0895AEE0F5
:102DE000B0E0E5EFF6E10C949E190D891E8986E0AE
:102DF0008C831A8309838FEF9FE79E838D83AE01B7
:102E0000475E5F4F6F89788DCE0101960E94121741
:102E10002F813885020F131FF80110822E96E4E0EF
:102E20000C94BA19ABE0B0E0E8E1F7E10C9490192A
:102E30007C013B018A01FC0117821682838181FF9C
:102E4000C8C1CE0101965C01F7019381F30193FDA6
:102E5000859193FF81913F01882309F453C1853205
:102E600039F493FD859193FF81913F01853229F4D7
:102E7000B70190E00E940219E7CF912C212C312C50
:102E8000FFE1F31538F08B3211F190F4803209F143
:102E9000833229F137FC3CC020ED280F2A3050F551
:102EA00036FE20C08AE0989E200D1124922E06C086
:102EB0008D3291F0803371F7689430F8F30193FD0F
:102EC000859193FF81913F018111DACF21C06894F0
:102ED00031F8689432F8F2CF689433F8EFCF689401
:102EE00034F8ECCFEAE02E9E200D1124222E6894B7
:102EF00035F8E4CF8E3229F436FC04C1689436F8F4
:102F0000DDCF8C3619F4689437F8D8CF8836B1F213
:102F1000982F9F7D95549330E0F08336A1F183374D
:102F2000C1F1833509F063C02801F2E04F0E511C56
:102F3000F801C080D180692D70E036FC02C06FEFCF
:102F40007FEFC6010E94EC184C01689437F88201AB
:102F50000AC00C5F1F4FFFE3F98388248394912CF0
:102F60006501E89437F833FE2DC0522C811491048A
:102F700071F5552009F468CFB70180E290E00E9416
:102F800002195A94F6CFF801808189830E5F1F4F92
:102F9000E4CF2801F2E04F0E511CF801C080D1802F
:102FA000692D70E036FC02C06FEF7FEFC6010E9412
:102FB000F7184C018201D5CFB70180E290E00E9462
:102FC00002192A942814190409F0B0F7CECFF6019B
:102FD00037FC859137FE81916F01B70190E00E9427
:102FE000021951105A94F1E08F1A9108BFCF84361C
:102FF00019F0893609F077C0F80137FE6BC060819F
:103000007181828193810C5F1F4FF32DFF763F2EDC
:1030100097FF09C090958095709561957F4F8F4F70
:103020009F4F689437F82AE030E0A5010E943219DA
:10303000C82ECA188C2C432C36FE0CC0E89440F8DD
:10304000C91440F434FE05C032FC03C0F32DFE7EEB
:103050004F2E892C44FE95C0FE01EC0DF11D8081A0
:10306000803309F087C0242D297E422E842D88705C
:10307000582E43FC95C040FE8FC09C2C821418F43F
:103080002C0C922C981844FE91C0B70180E390E07C
:103090000E94021942FE09C088E790E041FE02C08A
:1030A00088E590E0B7010E940219C91408F48AC0AB
:1030B000CA94D12C9FEFC91AD90ACA0CDB1CF6019D
:1030C00082916F01B70190E00E940219AC14BD0417
:1030D000B1F74FCF60817181072E000C880B990BDF
:1030E0000E5F1F4F92CFD32CE894D4F82AE030E043
:1030F000853739F1232D297FD22E8F3601F148F4FF
:103100008835A9F0F701868197812B96E2E10C942E
:10311000AC19803749F08837A9F7D4FE02C068940B
:10312000D2F820E130E00DC06894D4F8F6CF34FE38
:1031300003C0822F8660D82E20E132E002C028E052
:1031400030E0F801D7FE0FC06081718182819381E8
:103150000C5F1F4FA5010E943219C82ECA183D2CC2
:10316000E89437F867CF6081718190E080E00E5F6E
:103170001F4FF0CF42FC02C0839478CF8394839496
:1031800075CF842D867809F471CFF6CFB70180E230
:1031900090E00E94021983948214C0F3512C73CFE3
:1031A000522C5818821408F46ECFF8CF842D8678EC
:1031B00009F47BCF8BE241FE80E247FC8DE2B70150
:1031C00090E071CFB70180E390E00E9402199A94D9
:1031D0006CCF8FEF9FEF99CFFC010590615070404D
:1031E0000110D8F7809590958E0F9F1F0895FC01D0
:1031F0006150704001900110D8F7809590958E0F26
:103200009F1F08950F931F93CF93DF93182F092FBC
:10321000EB018B8181FD09C01FEF0FEF812F902FF4
:10322000DF91CF911F910F91089582FF14C02E81DD
:103230003F818C819D81281739073CF4E881F98111
:10324000CF0101969983888310838E819F81019697
:103250009F838E83E3CFE885F985812F0995892B9C
:10326000A1F3DACFFA01AA27283051F1203181F1F8
:10327000E8946F936E7F6E5F7F4F8F4F9F4FAF4F7E
:10328000B1E03ED0B4E03CD0670F781F891F9A1F91
:10329000A11D680F791F8A1F911DA11D6A0F711D45
:1032A000811D911DA11D20D009F468943F912AE051
:1032B000269F11243019305D3193DEF6CF01089539
:1032C000462F4770405D4193B3E00FD0C9F7F6CF6A
:1032D000462F4F70405D4A3318F0495D31FD405232
:1032E000419302D0A9F7EACFB4E0A69597958795C8
:1032F00077956795BA95C9F70097610571050895A7
:103300009B01AC010A2E0694579547953795279552
:10331000BA95C9F7620F731F841F951FA01D0895EA
:103320002F923F924F925F926F927F928F929F92D5
:10333000AF92BF92CF92DF92EF92FF920F931F93C3
:10334000CF93DF93CDB7DEB7CA1BDB0B0FB6F89474
:10335000DEBF0FBECDBF09942A88398848885F84B4
:103360006E847D848C849B84AA84B984C884DF8025
:10337000EE80FD800C811B81AA81B981CE0FD11D09
:103380000FB6F894DEBF0FBECDBFED010895F894DF
:02339000FFCF6D
:10339200000000006D03CD02FA02BA032B030903F9
:1033A2001D030000000081065406B0062A064D06E1
:1033B2003A062B060D0A0053656E736F722069730D
:1033C200207265616479005961773A202532642060
:1033D2004779726F3A2025326420C2B02F73207C65
:1033E2002050697463683A20253264204779726FED
:1033F2003A2025326420C2B02F73207C20526F6C99
:103402006C3A20253264204779726F3A2025326463
:1034120020C2B02F732000536572766F20747572CC
:103422006E206C696D69742028506F7369746976B7
:10343200652900536572766F207475726E206C690F
:103442006D697420284E656761746976652900008C
:00000001FF
